:1000000037EF0CF0FFFFFFFF10EF10F0FFFFFFFFD7
:1000180000EF20F010003DEF00F088EF09F051EFFD
:100028000CF07BEF07F094EF0BF050EF04F06EEF5D
:1000380008F01FEF0CF07CEF06F04BEF0CF002EF2E
:100048000AF072EF05F055EF0AF0F1EF0BF0CAEF86
:100058000BF0AFEF0BF074EF0BF041EF0CF02BEF60
:100068000CF011EF0CF0F9EF02F012EF03F0EDEFE6
:1000780002F000C0E5FF01C0E5FF02C0E5FF03C0D4
:10008800E5FF04C0E5FF69A405D068A403D06D921C
:100098006994689469A003D068B088EC09F069A8ED
:1000A80005D068A803D0698468986D8269AA42D08F
:1000B80068AA40D0006A70B0002A0050010A39E1ED
:1000C8005E50030DF3CF00F0F4CF01F0000184512E
:1000D8000026855101228651026A022200C0E9FFEA
:1000E80001C0F3FF0250AFEC0BF0006EF3CF01F04C
:1000F800F4CF02F000C0E9FF01C0F3FF0250AFECFB
:100108000BF0006EF3CF01F0F4CF02F0F2CFE5FF71
:10011800F29E0500380EFD6E010EFE6E000EFF6E9B
:10012800E450F26E02C0FBFF01C0FAFF0050F96E06
:100138007090689A030E5F5CD8A015D169A613D198
:1001480068A611D16CB4B9D06C50E838E8440F0BEC
:10015800006E0024040DF3CF00F0000E0026040EFC
:10016800016A00BE0168012200C0E9FF01C0EAFF80
:10017800EF50E840E8400F0B0D0A01E04FD05E5009
:10018800030DF3CF00F0F4CF01F0000187510026F2
:10019800885101228951026A022200C0E9FF01C088
:1001A800F3FF0250AFEC0BF0006EF3CF01F0F4CF89
:1001B80002F06C50E838E8440F0BE56AE56EE56A32
:1001C800030EE56E55EC0AF0036EF3CF04F0040E4F
:1001D800E1260350002604500122E86A022200C0EA
:1001E800E9FF01C0F3FF0250AFEC0BF0006EF3CF54
:1001F80001F0F4CF02F0F2CFE5FFF29E0500220EE7
:10020800FD6E020EFE6E000EFF6EE450F26E02C02E
:10021800FBFF01C0FAFF0050F96EA4D05E50030D39
:10022800F3CF00F0F4CF01F000018A5100268B5182
:1002380001228C51026A022200C0E9FF01C0F3FFCB
:100248000250AFEC0BF0006EF3CF01F0F4CF02F0E8
:100258006C50E838E8440F0BE56AE56EE56A030E72
:10026800E56E55EC0AF0036EF3CF04F0040EE126B8
:100278000350002604500122E86A022200C0E9FF68
:1002880001C0F3FF0250AFEC0BF0006EF3CF01F0AA
:10029800F4CF02F0F2CFE5FFF29E0500C00EFD6E2E
:1002A800020EFE6E000EFF6EE450F26E02C0FBFFFF
:1002B80001C0FAFF0050F96E55D0006A6CB4002AEC
:1002C8000050010A01E04ED05E50030DF3CF00F05C
:1002D800F4CF01F000018D5100268E5101228F517B
:1002E800026A022200C0E9FF01C0F3FF0250AFEC2E
:1002F8000BF0006EF3CF01F0F4CF02F06C50E83849
:10030800E8440F0BE56AE56EE56A030EE56E55EC09
:100318000AF0036EF3CF04F0040EE1260350002622
:1003280004500122E86A022200C0E9FF01C0F3FF7D
:100338000250AFEC0BF0006EF3CF01F0F4CF02F0F7
:10034800F2CFE5FFF29E05006C0EFD6E030EFE6E09
:10035800000EFF6EE450F26E02C0FBFF01C0FAFF10
:100368000050F96E6896E4CF04F0E4CF03F0E4CFD0
:1003780002F0E4CF01F0E4CF00F012001201000215
:10038800FF00FF08D804AAFE0100010203020902C7
:100398001200010104C0000904000000FFFFFF046F
:1003A80009022000010205C0000904000002FFFF45
:1003B800FF05070501024000000705820240000012
:1003C800960300A803000403090426034A006500F5
:1003D80061006E002D005000690065007200720017
:1003E800650020004D0041004E0044004F004E00C3
:1003F8002203500069006E006700750069006E00F6
:100408006F002000500072006F006A0065006300F2
:1004180074000403310010034400650066006100A5
:1004280075006C0074000C0346006C0061007300DA
:100438006800CE0300D20300F803001A04001E046B
:10044800002E0400281700AC1800AC1800AC1800E7
:10045800AC1800AC1800AC1800AC1800AC1800AC14
:100468001800AC1800AC1800AC1800AC1800AC1898
:1004780000AC18002817003E1800961800AC1800A9
:10048800AC1800AC1800AC1800AC1800AC1800ACE4
:100498001800AC1800AC1800AC1800AC1800AC1868
:1004A80000AC18004C04004C04007C040000A008B8
:1004B80000AC1800AC1800AC1800AC1800AC180060
:1004C800AC1800AC1800AC1800AC1800AC1800ACA4
:1004D8001800AC1800AC1800AC1800AC1800A00844
:1004E80000AC1800041400AC1800AC1800AC1800DC
:1004F800AC1800AC1800AC1800AC1800AC1800AC74
:100508001800AC1800AC1800AC1800AC1800B60401
:1005180000B60400E6040000281700AC1800AC1868
:1005280000AC1800AC1800AC1800AC1800AC1800EF
:10053800AC1800AC1800AC1800AC1800AC1800AC33
:100548001800AC1800AC1800281700F80C00AC18FC
:1005580000AC1800AC1800AC1800AC1800AC1800BF
:10056800AC1800AC1800AC1800AC1800AC1800AC03
:100578001800AC1800AC1800200500200500500534
:100588000000DC1000AC1800AC1800AC1800AC1867
:1005980000AC1800AC1800AC1800AC1800AC18007F
:1005A800AC1800AC1800AC1800AC1800AC1800ACC3
:1005B80018008A05008A05008A050000030100006A
:1005C80000FF1F0003002000FF7F00010000300D26
:1005D8000030E8060000E85007E000D000D000D066
:1005E80000D00000E82EFAD71200E806E56E090EE2
:1005F80012EC03F0630EEDEC02F0E4500EE000D0D4
:10060800E56E090E12EC03F0630EEDEC02F000D07B
:1006180000D00000E450E82EF3D71200E806E56E9B
:10062800630EEDEC02F0E4500BE000D0E56E630ED3
:10063800EDEC02F000D000D00000E450E82EF6D730
:10064800120000C0E5FF01C0E5FF02C0E5FF0001A0
:10065800A56B05010051E838E840030B006E005017
:1006680002E0E86A12D105EE01F0EFCF00F0005089
:1006780001E103D10050010A01E1FFD00050030A53
:1006880001E1FBD00050050A01E1CED00050060A76
:100698001CE00050080A0DE00050090A01E1C7D02B
:1006A80000500A0A01E1E9D000500B0A01E1E5D047
:1006B800E1D0000E0001916F5E0E906F800E926F78
:1006C800010E0001986F996BD8D005EE03F0EFCFBB
:1006D80000F0010E005CD8A0A3D0040E005CD8B0D6
:1006E8009FD0000603C0E5FF04C0E5FF046A00349C
:1006F8000436E8340436FC0B036E000EFB6E070E5E
:10070800FA6E220E03260450FA22D8B0FB2A0350B0
:10071800E4CF04F0E4CF03F0F96E97EF03F0AEEF07
:1007280003F0E4EF03F078C090F079C091F07AC05C
:1007380092F078C000F079C001F07AC002F000C0F1
:10074800E9FF01C0F3FF0250F1EC0BF00001986FD4
:10075800996B93D005EE02F0EFCF00F00050030D37
:10076800F3CF00F0F4CF01F000017B5100267C515B
:1007780001227D51026A022200C0E9FF01C0F3FF95
:100788000250AFEC0BF00001906FF3CF91F0F4CF73
:1007980092F090C000F091C001F092C002F0020EF9
:1007A8000026000E0122022200C0E9FF01C0F3FF6B
:1007B8000250CAEC0BF00001986FF3CF99F05DD0AE
:1007C80005EE02F0EFCF00F00050030DF3CF00F07C
:1007D800F4CF01F000017E5100267F5101228051A3
:1007E800026A022200C0E9FF01C0F3FF0250AFEC29
:1007F8000BF00001906FF3CF91F0F4CF92F090C01E
:1008080000F091C001F092C002F000C0E9FF01C001
:10081800F3FF0250F1EC0BF00001986F996B2DD0AB
:10082800010E0001A56F29D0040E5F6E26D078C096
:1008380000F079C001F07AC002F0110E0026000E17
:100848000122022200C0E9FF01C0F3FF0250F1ECCF
:100858000BF0006E05EE02F0EFCF01F00150005CE6
:1008680005E3EFCFA4F0060E5F6E07D0010E00017E
:10087800A56F03D0010E0001A56F0001A551D88016
:10088800E866D890006A00360050E4CF02F0E4CF62
:1008980001F0E4CF00F0120000C0E5FF01C0E5FF61
:1008A80002C0E5FF03C0E5FF04C0E5FF5F50040A8E
:1008B8000BE105EE02F0EFCF6EFF6E5003E0050E80
:1008C8005F6E02D0030E5F6E0001A351010A29E199
:1008D800000E016E900E006E800E026E000E046E09
:1008E800980E036E800EE56E0450E56E0350E56EBB
:1008F800E56A080EE56E0250E56E0150E56E00509F
:10090800E56E000EE56A7BEC07F0090EE1260401AE
:1009180004BD03D0C80E046F06D0880E0401046F0E
:1009280002D094EC0BF05F50060A01E0CCD0716A5B
:10093800726A736A746A756A766A776A786A796AB3
:100948007A6A7B6A7C6A7D6A7E6A7F6A030E000126
:10095800A45D1DE2AC0E0001846F040E856F000ECD
:10096800866F160E00018D6F050E8E6F000E8F6F4D
:10097800800E00018A6F050E8B6F000E8C6FBA0E09
:100988000001876F050E886F000E896F3CD00A0E34
:10099800F66E200EF76E000EF86E0900F5CF84F0A3
:1009A8000900F5CF85F00900F5CF86F00D0EF66E3B
:1009B800200EF76E000EF86E0900F5CF8DF00900D5
:1009C800F5CF8EF00900F5CF8FF0100EF66E200EE1
:1009D800F76E000EF86E0900F5CF8AF00900F5CF22
:1009E8008BF00900F5CF8CF0130EF66E200EF76E23
:1009F800000EF86E0900F5CF87F00900F5CF88F0F2
:100A08000900F5CF89F0A4C05EF00001A45103E10C
:100A1800050E5F6E58D00F0E0001A66F0001A6519B
:100A280003E0010E006E01D0006A0050D8B449D02E
:100A38000001A451030DF3CF00F0F4CF01F0000141
:100A480084510026855101228651026A022200C083
:100A5800E9FF01C0F3FF0250AFEC0BF0006EF3CFDB
:100A680001F0F4CF02F00001A651030DF3CF03F01B
:100A7800F4CF04F00350002604500122E86A022251
:100A880000C0E9FF01C0F3FF0250AFEC0BF0006EAD
:100A9800F3CF01F0F4CF02F0F2CFE5FFF29E0500AC
:100AA800C40EFD6E0A0EFE6E000EFF6EE450F26E6E
:100AB80002C0FBFF01C0FAFF0050F96E0001A60753
:100AC800ADD7070E5F6EE4CF04F0E4CF03F0E4CFB8
:100AD80002F0E4CF01F0E4CF00F01200D9CFE5FF37
:100AE800E1CFD9FF00C0E5FF01C0E5FF02C0E5FF87
:100AF80003C0E5FF04C0E5FF05C0E5FF06C0E5FF4C
:100B080007C0E5FF020EDBCF00F0030EDBCF01F0DC
:100B1800040EDBCF02F0050EDBCF03F0060EDBCFB1
:100B280004F0070EDBCF05F0080EDBCF06F0090E48
:100B3800DBCF07F000500001646F0150656F025071
:100B4800666F0350676F04500001686F0550696F46
:100B580006506A6F07506B6F0001645100016A0309
:100B6800F3CF00F0F4CF01F0005000016E6F015098
:100B78006F6F0001645100016803F3CF00F0F4CFF8
:100B880001F0005000016C6F01506D6F000167515A
:100B980000016803F3CF00F000016F5100260050F8
:100BA8006F6F0001665100016903F3CF00F0000187
:100BB8006F51002600506F6F0001665100016803F5
:100BC800F3CF00F0F4CF01F000016E5100266F5111
:100BD800012200506E6F01506F6F000165510001D6
:100BE8006903F3CF00F0F4CF01F000016E51002645
:100BF8006F51012200506E6F01506F6F00016551F7
:100C080000016A03F3CF00F000500001736F000188
:100C1800655100016803F3CF00F0F4CF01F00050F4
:100C28000001716F0150726F0001645100016B0384
:100C3800F3CF00F000500001776F0001645100010C
:100C48006903F3CF00F0F4CF01F000500001756F95
:100C58000150766F0001706B0001746B00017051D8
:100C680000016C25006E0001715100016D21016EBB
:100C78000001725100016E21026E000173510001E2
:100C88006F21036E00506C6F01506D6F02506E6FD4
:100C980003506F6F0001745100016C25006E000154
:100CA800755100016D21016E0001765100016E2120
:100CB800026E0001775100016F21036E03C0E9FF46
:100CC80002C0F4FF01C0F3FF0050E4CF07F0E4CF07
:100CD80006F0E4CF05F0E4CF04F0E4CF03F0E4CF6E
:100CE80002F0E4CF01F0E4CF00F0E4CFD9FF120026
:100CF800D9CFE5FFE1CFD9FF00C0E5FF01C0E5FF8F
:100D080002C0E5FF03C0E5FF04C0E5FF05C0E5FF3D
:100D180006C0E5FF07C0E5FF80B804D00A0EF9EC6D
:100D280002F0FF0009C4A8F0010E0001A85DD8A0D8
:100D3800C2D010C500F0060E005CD8B0A7D008C01D
:100D4800E5FF09C0E5FF096A00340936E8340936C9
:100D5800FC0B086E000EFB6E0D0EFA6E7C0E08265C
:100D68000950FA22D8B0FB2A0850E4CF09F0E4CFA2
:100D780008F0F96ECAEF06F0D3EF06F0E2EF06F0DE
:100D880036EF07F037EF07F03CEF07F011C5F6FF35
:100D980012C5F7FF13C5F8FFE0EC0BF080D011C5C2
:100DA800F6FF12C5F7FF13C5F8FF050EE56E140E22
:100DB800E56E42EC0BF0020EE12671D0400E000108
:100DC8009A6F9B6B11C500F0016A12C502F0036AA5
:100DD8000350E56E0250E56E010EE56E000EE56EFD
:100DE80055EC0AF0026EF3CF03F0040EE126025030
:100DF80000260350012213C502F0036A046A056A3B
:100E08000550E56E0450E56E0350E56E0250E56E40
:100E1800000EE56E010EE56E000EE56E000EE56E45
:100E280072EC05F0026EF3CF03F0F4CF04F0E9CFD3
:100E380005F0080EE126E86A01BEFF0E066E076E91
:100E480000500226015003220650042207500522B2
:100E580004500001956F0350946F0250936FA5ECF6
:100E68000AF01DD01CD00A0EF9EC02F0FF0017D0D2
:100E7800160E00019A6F9B6BC40E0001936F050E4E
:100E8800946F000E956FA5EC0AF009D0400E04018E
:100E9800096F100E0A6F050E0B6F840E086F400E57
:100EA8000401096F08BD03D0C80E086F0DD0880E65
:100EB8000401086F09D0400E0401096F100E0A6F73
:100EC800050E0B6F840E086FE4CF07F0E4CF06F031
:100ED800E4CF05F0E4CF04F0E4CF03F0E4CF02F070
:100EE800E4CF01F0E4CF00F0E4CFD9FF1200D9CF6E
:100EF800E5FFE1CFD9FF00C0E5FF01C0E5FF02C073
:100F0800E5FF03C0E5FF04C0E5FF05C0E5FF06C037
:100F1800E5FF07C0E5FF08C0E5FF09C0E5FF0AC017
:100F2800E5FF0BC0E5FF020EDBCF00F0030EDBCFC1
:100F380001F0040EDBCF02F0050EDBCF03F0060E46
:100F4800DBCF04F0070EDBCF05F0080EDBCF06F091
:100F5800090EDBCF07F00A0EDBCF08F006C0E9FF69
:100F680007C0F3FF0850CAEC0BF0096EF3CF0AF084
:100F780005500A5C02E10450095C05E209C096F0DC
:100F88000AC097F004D004C096F005C097F000504E
:100F98000024046E0428040DF3CF00F0000E002492
:100FA800046E056A040E0522042AD8B0052A000139
:100FB80096510B6E04C0E9FF05C0EAFF0BC0EFFFB6
:100FC800000E0026040E046A0422020E0026D8B081
:100FD800042A00C0E9FF04C0EAFFEECF00F0EFCF1B
:100FE80004F004500001826F0050816F800E836FFF
:100FF80000019651095E9751FFFFFFFFFFFFFFFFBA
:020000040020DA
:020000040030CA
:0E000000000F0F1E0080810003C003A003400C
:0200000400F00A
:00000001FF